:1000000061C0000087C0000085C0000083C0000000
:1000100081C000007FC000007DC000007BC00000E8
:1000200079C0000077C0000075C0000073C00000F8
:1000300071C000006FC000006DC000006BC0000008
:100040000C94EF1167C000000C940C1A0C94381A31
:1000500061C000005FC000005DC000005BC0000028
:1000600059C0000057C00000000000002400270015
:100070002A0000000000250028002B0000000000DE
:1000800023002600290004040404040404040202DA
:100090000202020203030303030301020408102007
:1000A0004080010204081020010204081020000012
:1000B0000008000201000003040700000000000027
:1000C00000009F1A11241FBECFEFD8E0DEBFCDBFC6
:1000D00011E0A0E0B1E0E4E6F6E302C005900D9285
:1000E000A437B107D9F722E0A4E7B1E001C01D921F
:1000F000AB3CB207E1F710E0C2E6D0E004C02197C4
:10010000FE010E941F1BC136D107C9F70E942409B6
:100110000C94301B75CFCF93DF9300D000D0CDB7B8
:10012000DEB769837A838B839C8389819A81AB81D3
:10013000BC810E97A105B10530F48981825F60E032
:100140000E949E1304C0898160E00E949E138981F1
:100150009A8101969C0189819A81AB81BC81A90118
:10016000BC01CD01B8D089819A8101960F900F9082
:100170000F900F90DF91CF910895CF93DF93CDB77C
:10018000DEB729970FB6F894DEBF0FBECDBF9D83B3
:100190008C837F836E8359874887CE010496FC0148
:1001A0008081882399F0CE010496FC0180818150E2
:1001B000898389810E944E139B838A832A813B8194
:1001C0008E819F81FC013183208305C08E819F81B8
:1001D000FC0111821082000029960FB6F894DEBF50
:1001E0000FBECDBFDF91CF910895CF93DF9300D0A5
:1001F0001F92CDB7DEB79B838A83CE010296FC01A6
:100200008081882389F01982CE010296FC018081C9
:10021000815089838981882F90E0A0E0B0E040E0A0
:1002200050E0BC01CD0157D000000F900F900F900F
:10023000DF91CF910895CF93DF93CDB7DEB72997A4
:100240000FB6F894DEBF0FBECDBF6E837F83888765
:1002500099871C821B821A8219821D828E819F813E
:10026000A885B985689412F8B695A795979587954E
:100270001694D1F79C838B838E8187708D838B81BD
:100280009C818C589E4FFC0140818D81282F30E04D
:1002900081E090E002C0880F991F2A95E2F784233D
:1002A000882F90E09A83898389819A81892B31F004
:1002B0008E819F8101969A83898302C01A82198256
:1002C00089819A8129960FB6F894DEBF0FBECDBF03
:1002D000DF91CF910895CF93DF93CDB7DEB72A9703
:1002E0000FB6F894DEBF0FBECDBF6D837E838F83C4
:1002F00098875A8749871A8219821B821C828D81AE
:100300009E81AF81B885689412F8B695A7959795A8
:1003100087951694D1F79A8389838D8187708B8313
:100320008B81282F30E081E090E002C0880F991F78
:100330002A95E2F78C8389859A85892B99F48C819B
:1003400080958C8389819A818C589E4FFC01908185
:100350008C81292F282389819A818C589E4FFC01FA
:1003600020830FC089819A818C589E4FFC01908117
:100370008C81292F282B89819A818C589E4FFC01D2
:10038000208300002A960FB6F894DEBF0FBECDBFC3
:10039000DF91CF910895CF93DF9300D0CDB7DEB733
:1003A00089836A838A81882329F460E089810E9495
:1003B0009E130CC08A81813029F461E089810E94FA
:1003C0009E1304C062E089810E949E1300000F907A
:1003D0000F90DF91CF910895CF93DF9300D0CDB7E9
:1003E000DEB789836A838A81882329F061E0898165
:1003F0000E94C81404C060E089810E94C8140000F3
:100400000F900F90DF91CF910895CF93DF9300D09D
:10041000CDB7DEB78A838A810E945015019711F407
:1004200081E001C080E0898389810F900F90DF9186
:10043000CF910895CF93DF93CDB7DEB72DE731E0AD
:10044000F90186819781A085B1850196A11DB11D15
:10045000F90186839783A087B1878DE791E0FC013E
:1004600086819781A085B1850597A105B10538F0F2
:100470008DE791E0FC01168217821086118600003C
:10048000DF91CF9108958F929F92AF92BF92CF92BA
:10049000DF92EF92FF920F931F93CF93DF93CDB72D
:1004A000DEB762970FB6F894DEBF0FBECDBF809166
:1004B000740290917502A0917602B091770220911A
:1004C0000C0130910D0140910E0150910F01BC01C2
:1004D000CD010E949D0F882381F080910C019091A5
:1004E0000D01A0910E01B0910F01809374029093C1
:1004F0007502A0937602B09377028AE086DF888B3C
:100500008091500290915102A0915202B0915302F9
:10051000209114013091150140911601509117015D
:10052000BC01CD010E949D0F882381F080911401B0
:1005300090911501A0911601B0911701809350027E
:1005400090935102A0935202B09353026FE070E077
:1005500080E090E070DE90934F0280934E02809195
:100560004E0290914F029E01225F3F4F43E050E0C8
:10057000B90103DEC0901C01D0901D01E0901E0166
:10058000F0901F018E859F85CC01A0E0B0E0BC01FA
:10059000CD010E943510DC01CB019C01AD01C701EA
:1005A000B6010E948C11DC01CB017C018D01809190
:1005B000200190912101A0912201B09123019C0181
:1005C000AD01C801B7010E948C11DC01CB018A8703
:1005D0009B87AC87BD878091680290916902A0914A
:1005E0006A02B0916B02209108013091090140919B
:1005F0000A0150910B01BC01CD010E949D0F88237F
:1006000081F08091080190910901A0910A01B091B7
:100610000B018093680290936902A0936A02B093E1
:100620006B0260E170E080E090E005DE909367028D
:100630008093660280916602909167029E01225F1C
:100640003F4F43E050E0B90198DDC0902401D090C5
:100650002501E0902601F09027018E859F85CC0131
:10066000A0E0B0E0BC01CD010E943510DC01CB015F
:100670009C01AD01C701B6010E948C11DC01CB01C8
:100680007C018D018091280190912901A0912A017E
:10069000B0912B019C01AD01C801B7010E948C11E2
:1006A000DC01CB01BC01CD010E947210DC01CB0149
:1006B0008A839B83AC83BD838A819B81AC81BD810E
:1006C000BC01CD010E941F0D882351F48A819B81BA
:1006D000AC81BD81BC01CD010E94E90C882329F0C9
:1006E0001A821B821C821D8212C08A819B81AC816E
:1006F000BD8120E030E040E85FE4BC01CD010E9414
:100700008C10DC01CB018A839B83AC83BD838A81FF
:100710009B81AC81BD8120E030E0A901BC01CD010D
:100720000E949D0F88237CF48A819B81AC81BD81CE
:10073000B058BC01CD010E940910DC01CB0191959C
:10074000819591090AC08A819B81AC81BD81BC01E0
:10075000CD010E940910DC01CB019A8B898B80911D
:10076000440290914502A0914602B0914702209127
:1007700018013091190140911A0150911B01BC01DF
:10078000CD010E949D0F882381F0809118019091E6
:100790001901A0911A01B0911B018093440290931A
:1007A0004502A0934602B093470261E170E080E009
:1007B00090E041DD90934302809342028091420297
:1007C000909143029E01225F3F4F43E050E0B90108
:1007D000D4DCC0902C01D0902D01E0902E01F0903F
:1007E0002F018E859F85CC01A0E0B0E0BC01CD013A
:1007F0000E943510DC01CB019C01AD01C701B6019F
:100800000E948C11DC01CB017C018D0180913001B3
:1008100090913101A0913201B09133019C01AD0161
:10082000C801B7010E948C11DC01CB017C018D0154
:100830008091340190913501A0913601B09137013A
:100840009C01AD01C801B7010E94250FDC01CB015D
:100850008A839B83AC83BD8380915C0290915D020F
:10086000A0915E02B0915F022091100130911101C0
:100870004091120150911301BC01CD010E949D0FC6
:10088000882381F08091100190911101A0911201B3
:10089000B091130180935C0290935D02A0935E027D
:1008A000B0935F0262E170E080E090E0C4DC90937E
:1008B0005B0280935A0280915A0290915B029E01E2
:1008C000225F3F4F43E050E0B90157DCC090380150
:1008D000D0903901E0903A01F0903B018E859F85E0
:1008E000CC01A0E0B0E0BC01CD010E943510DC01DC
:1008F000CB019C01AD01C701B6010E948C11DC0146
:10090000CB017C018D0180913C0190913D01A09132
:100910003E01B0913F019C01AD01C801B7010E94A9
:100920008C11DC01CB018E839F83A887B987FE01E0
:1009300036969E012E5F3F4FAE014F5E5F4FBE0168
:10094000665F7F4FCE0140960F2EF2EA8F2EF2E0C7
:100950009F2EF02D0F2EF0EBAF2EF2E0BF2EF02DDC
:100960000F2EFEEACF2EF2E0DF2EF02D0F2EFAEA48
:10097000EF2EF2E0FF2EF02D8F01DCD48091AA0241
:100980009091AB02A091AC02B091AD02BC01CD013F
:100990004ED7DC01CB018A839B83AC83BD838A81E4
:1009A0009B81AC81BD8120E030E040E853E4BC0194
:1009B000CD010E949D0F8823DCF48A819B81AC814C
:1009C000BD8120E030E0A901BC01CD010E94881169
:1009D000882364F08A819B81AC81BD81BC01CD01FB
:1009E0000E940910DC01CB01898304C0198202C076
:1009F0008FEF8983698182E0EFDC8091AE02909174
:100A0000AF02682F87E0E8DC8091B002682F89E0B0
:100A1000E3DC8DE791E0FC0186819781A085B185BB
:100A2000892B8A2B8B2B69F49091980281E0992372
:100A300009F080E08093980280919802682F8DE001
:100A4000CBDCF8DC000062960FB6F894DEBF0FBE78
:100A5000CDBFDF91CF911F910F91FF90EF90DF906D
:100A6000CF90BF90AF909F908F900895CF93DF93DA
:100A7000CDB7DEB784E090E05DD78DE791E04AE046
:100A800050E060E070E00E94291B47E050E060E029
:100A900070E08AEA92E00E94291B1092AF02109245
:100AA000AE024EE650E060E070E08CE392E00E941F
:100AB000291B8DE791E042EA52E068EA72E0AED687
:100AC00010926C0281E08093A00280910C019091C1
:100AD0000D01A0910E01B0910F01809374029093CB
:100AE0007502A0937602B093770281E090E0A0E0D7
:100AF000B0E080936D0290936E02A0936F02B0936A
:100B0000700260E08AE047DC81E08093710210921D
:100B1000480281E080939A0280911401909115011E
:100B2000A0911601B0911701809350029093510249
:100B3000A0935202B093530281E090E0A0E0B0E0B5
:100B40008093490290934A02A0934B02B0934C02C7
:100B50006FE070E080E090E0DEDA90934F028093E7
:100B60004E0281E080934D021092600281E08093FA
:100B7000A1028091080190910901A0910A01B09110
:100B80000B018093680290936902A0936A02B0936C
:100B90006B0281E090E0A0E0B0E08093610290936E
:100BA0006202A0936302B093640260E170E080E0AF
:100BB00090E0B1DA909367028093660281E08093BF
:100BC000650210923C0281E08093990280911801A5
:100BD00090911901A0911A01B0911B0180934402D8
:100BE00090934502A0934602B093470281E090E0C3
:100BF000A0E0B0E080933D0290933E02A0933F02BC
:100C0000B093400261E170E080E090E084DA90937C
:100C100043028093420281E0809341021092540289
:100C200081E080939B028091100190911101A0912D
:100C30001201B091130180935C0290935D02A09326
:100C40005E02B0935F0281E090E0A0E0B0E08093AC
:100C5000550290935602A0935702B093580262E156
:100C600070E080E090E057DA90935B0280935A0244
:100C700081E0809359021092900281E080939F025C
:100C800081E090E0A0E0B0E0809391029093920226
:100C9000A0939302B093940261E082E07CDB81E058
:100CA000809395021092880281E080939E0281E0F9
:100CB00090E0A0E0B0E08093890290938A02A09334
:100CC0008B02B0938C0261E087E065DB81E080936A
:100CD0008D021092800281E080939D0281E090E07D
:100CE000A0E0B0E08093810290938202A0938302FF
:100CF000B093840261E089E04EDB81E0809385025D
:100D00001092780281E080939C0281E090E0A0E064
:100D1000B0E08093790290937A02A0937B02B09323
:100D20007C0261E08DE037DB81E080937D02809181
:100D300040018093980222EA32E040EB52E06EEAF2
:100D400072E08AEA92E0DFD20000DF91CF9108954D
:100D5000CF93DF93CDB7DEB780916C02882319F46F
:100D600081E080936C0280914802882309F581E03C
:100D7000809348028091490290914A02A0914B02CF
:100D8000B0914C020197A105B10591F480914D02FB
:100D9000882371F06FE070E080E090E04CDA90938F
:100DA0004F0280934E0280914E0290914F021DDAC5
:100DB00080916002882309F581E080936002809130
:100DC000610290916202A0916302B0916402019766
:100DD000A105B10591F480916502882371F060E16D
:100DE00070E080E090E027DA9093670280936602DB
:100DF0008091660290916702F8D980913C02882325
:100E000009F581E080933C0280913D0290913E0281
:100E1000A0913F02B09140020197A105B10591F464
:100E200080914102882371F061E170E080E090E000
:100E300002DA9093430280934202809142029091A1
:100E40004302D3D980915402882309F581E080932D
:100E500054028091550290915602A0915702B09190
:100E600058020197A105B10591F480915902882398
:100E700071F062E170E080E090E0DDD990935B0278
:100E800080935A0280915A0290915B02AED9809170
:100E90009002882319F481E0809390028091880267
:100EA000882319F481E0809388028091800288234E
:100EB00019F481E08093800280917802882319F4EC
:100EC00081E0809378020000DF91CF910895CF9365
:100ED000DF93CDB7DEB726E030E040E855E260E0D2
:100EE00070E080E090E004D00000DF91CF910895A1
:100EF000CF93DF93CDB7DEB72A970FB6F894DEBF56
:100F00000FBECDBF9C838B834D835E836F837887B9
:100F10003A872987109288011092870189859A85DE
:100F20009A8389838B819C81092E000CAA0BBB0BB1
:100F300089309105A105B10508F0D2C08D55984FB3
:100F4000FC010C941F1BAC07CA07DD07F007030860
:100F5000160829083B084C08809187019091880168
:100F600081709927892B09F0AAC0809187019091FF
:100F700088018160909388018093870129818D8108
:100F80009E81AF81B885AC01BD018FE991E00E94DF
:100F90003F16A6C0809187019091880182709927A1
:100FA000892B09F08EC08091870190918801826021
:100FB000909388018093870193C0809187019091DD
:100FC000880184709927892B09F07DC08091870161
:100FD000909188018460909388018093870180C0FC
:100FE000809187019091880188709927892B09F059
:100FF0006CC08091870190918801886090938801EE
:10100000809387016DC080918701909188018071E4
:101010009927892B09F05BC0809187019091880105
:10102000806190938801809387015AC080918701E5
:101030009091880180729927892B09F04AC080918C
:101040008701909188018062909388018093870145
:1010500047C0809187019091880180749927892BDE
:10106000D1F58091870190918801806490938801E7
:101070008093870135C080918701909188018078A5
:101080009927892B51F5809187019091880180687B
:1010900090938801809387018091870190918801C6
:1010A00088279170892BD9F48091870190918801CC
:1010B00091609093880180938701000011C0000027
:1010C0000FC000000DC000000BC0000009C00000F0
:1010D00007C0000005C0000003C0000001C0000000
:1010E0002A960FB6F894DEBF0FBECDBFDF91CF9129
:1010F0000895CF93DF93CDB7DEB70000DF91CF9196
:101100000895EF92FF920F931F93CF93DF9300D038
:1011100000D01F92CDB7DEB719820E946012DC01A9
:10112000CB0180938D0190938E01A0938F01B0939A
:10113000900120918D0130918E0140918F0150914D
:1011400090018091890190918A01A0918B01B091C9
:101150008C0179018A01E81AF90A0A0B1B0BD801E4
:10116000C701803A9648A140B10508F43DC080917E
:101170008D0190918E01A0918F01B091900180938B
:10118000890190938A01A0938B01B0938C013BD08D
:101190000E946012DC01CB018A839B83AC83BD83F8
:1011A0008091890190918A01A0918B01B0918C016D
:1011B0002A813B814C815D8179018A01E81AF90A13
:1011C0000A0B1B0BD801C701803A9648A140B10514
:1011D00038F081E090E0909392018093910104C0F7
:1011E000109292011092910181E0898389810F9080
:1011F0000F900F900F900F90DF91CF911F910F9153
:10120000FF90EF900895CF93DF93CDB7DEB7809135
:10121000930191E0980F90939301882361F081E00E
:1012200090E090939201809391018091930181507D
:101230008093930106C027D98091930181508093B8
:101240009301DF91CF910895CF93DF93CDB7DEB7B0
:1012500028970FB6F894DEBF0FBECDBF8DEC9CEC87
:10126000ACECBDE389839A83AB83BC831D821E8271
:101270001F8218861092B2021092B1020E94BF1211
:1012800026DE8091420190914301FC01118210827F
:10129000EDDBF8942EDF8091420190914301FC0137
:1012A0008081918121E0892B09F020E0822F8093B9
:1012B000B102789417C08091420190914301FC01E2
:1012C0008081918121E0892B09F420E0822F809395
:1012D000B2029091B20281E0992309F080E08093FC
:1012E000B1020FDF8091B102882329F731DDF89434
:1012F00080E090E028960FB6F894DEBF0FBECDBF19
:10130000DF91CF910895F9012091940130919501D9
:1013100031832083DB011D921C92DC011D921D9202
:101320001D921C921397DA011C921282138214826E
:10133000158208952F923F924F925F926F927F9203
:101340008F929F92AF92BF92CF92DF92EF92FF92D5
:101350000F931F93CF93DF9300D000D000D0CDB771
:10136000DEB79C838B837E836D831A013901DA8219
:10137000C9822501F8012081318142815381FB011D
:10138000608171818281938160D59F7720E030E018
:101390004AE754E4C1D74BD220E030E04AE754E4B6
:1013A000D0D52DEC3CEC4CE45DE3B2D718160CF430
:1013B00058C0ED81FE81A080B180C280D3801D82A3
:1013C000F401008111810130110509F053C020E0C2
:1013D00030E040EA50E4F3016081718182819381C1
:1013E00097D787FF15C0035011090230110568F423
:1013F00011E020E030E040EA50ECF30160817181BF
:10140000828193819AD518160CF410E0FD81F111B8
:1014100011E0F401828181113CC081E0828382E08D
:101420008383E981FA8180819181F40191838083B2
:1014300026960FB6F894DEBF0FBECDBFDF91CF91D9
:101440001F910F91FF90EF90DF90CF90BF90AF90E2
:101450009F908F907F906F905F904F903F902F90D4
:101460000895F1E0FD83A12CB12C80E8C82E8FEB0C
:10147000D82EA6CF0115110509F0B5CFF301608173
:101480007181828193819F7720E030E040EA50E4CF
:10149000A7CF8381813041F0823049F0112351F18F
:1014A0001582148281E08383F20180831DC01111B3
:1014B000B8CF20E030E0A901C601B50129D787FDEA
:1014C000B0CF20E030E040E85FE3C601B50135D59C
:1014D00018160CF4A6CF83E0F401838384E08483A0
:1014E000E981FA8111821082F70110821182128241
:1014F000138297CF8481823009F4F7C0D8F4813009
:1015000009F450C081E090E0E981FA819183808301
:10151000F10180819181029709F4FFC0609104017B
:101520007091050180910601909107019058A601E4
:10153000950197C0833009F405C1843019F7E9811A
:10154000FA8111821082F1018081918182309105AE
:1015500061F421E030E0EB81FC814081411102C067
:1015600030E020E0232B09F0D8C0049709F059CFD0
:10157000EB81FC818081882309F453CF01E010E0E6
:1015800020E030E040EA50ECF3016081718182811B
:101590009381BED6181614F010E000E0012B09F07C
:1015A000B0C03FCF84E090E0E981FA8191838083ED
:1015B000F10180819181F4018330910541F415821C
:1015C00022E02483E981FA81918380832ACF858177
:1015D0008130C1F0823009F44BC02BEA3AEA4AEA82
:1015E0005EE3C601B50194D618160CF01ACF20E0C0
:1015F00030E040E85FE3C601B5019FD418160CF453
:1016000010CF48C020E030E0A901C601B50180D666
:1016100018166CF42BEA3AEA4AEA5EE3C601B50111
:101620008CD4181624F082E0F4018583FACE20E0F1
:1016300030E040EC5FE36091000170910101809126
:1016400002019091030168D62B013C012BEA3AEA92
:101650004AEA5EE3C601B501F8D39B01AC01C301C0
:10166000B2015AD6F7016083718382839383D9CE06
:101670002BEA3AEA4AEA5EE3C601B50149D61816F2
:101680005CF420E030E040E85FE3C601B50155D4EA
:10169000181614F081E0C8CF20E030E0A901F30172
:1016A000608171818281938148D4181624F083E08F
:1016B000F401858319CF40900001509001016090A2
:1016C00002017090030177FA709477F8709420E02B
:1016D00030E040E450E4C601B5011ED69B01AC01E8
:1016E00060E070E080E89FE3B7CF83E090E0E981BD
:1016F000FA8191838083F101808191818430910509
:1017000051F481E0F401848384E090E0E981FA817E
:1017100091838083CCCF029751F483E0F4018483DA
:1017200082E090E0E981FA8191838083DDCEA60199
:1017300095016091000170910101809102019091E9
:1017400003018FCF82E090E0E981FA819183808369
:10175000F1010081118103301105E9F420E030E04E
:1017600040EA50ECF3016081718182819381D0D590
:1017700018168CF481E090E0EB81FC81208121112E
:1017800002C090E080E0892B31F082E0F401848394
:1017900083E090E017CFF301408051806280738036
:1017A000C301B2019F7720E030E040EA50E4C5D3A6
:1017B00087FF15C0EB81FC818081882381F084E064
:1017C000F4010115110509F48ACE20E030E040EA69
:1017D00050E4C301B201B1D387FD10C022CE20E096
:1017E00030E040EA50E4C301B201A7D387FF19CE2D
:1017F000EB81FC818081882309F413CE81E090E0A5
:101800000130110511F090E080E0892B09F409CE38
:1018100085E0F401848381E090E0D4CEFB019183E4
:10182000808386E0FA0111928A95E9F70895CF93B3
:10183000DF93CDB7DEB728970FB6F894DEBF0FBEA3
:10184000CDBF6D837E838F8398878D819E81AF818D
:10185000B885BF7720E030E040E05BE4BC01CD011B
:101860006CD388230CF04FC020E030E040E05FE311
:101870006D817E818F8198854BD58823ACF020E0E7
:1018800030E040E05FE36D817E818F819885DED21C
:10189000DC01CB01BC01CD0125D4DC01CB01898366
:1018A0009A83AB83BC8337C020E030E040E05FEB3D
:1018B0006D817E818F8198852BD518167CF420E070
:1018C00030E0A9016D817E818F81988525D5DC016D
:1018D000CB0189839A83AB83BC831DC020E030E0B9
:1018E00040E05FE36D817E818F819885AED2DC011F
:1018F000CB01BC01CD010ED3DC01CB0189839A83DE
:10190000AB83BC8308C08D819E81AF81B8858983FC
:101910009A83AB83BC8389819A81AB81BC81BC01F2
:10192000CD0128960FB6F894DEBF0FBECDBFDF9174
:10193000CF910895CF93DF9300D0CDB7DEB79A83D0
:101940008983CBD1DC01CB018093BF029093C0028D
:10195000A093C102B093C20232D2DC01CB018093CA
:10196000B3029093B402A093B502B093B602A1D093
:10197000DC01CB018093BB029093BC02A093BD021B
:10198000B093BE0205D1DC01CB018093B7029093E6
:10199000B802A093B902B093BA0215D1DC01CB0111
:1019A0008093C3029093C402A093C502B093C60271
:1019B00079D1DC01CB018093C7029093C802A09338
:1019C000C902B093CA0200000F900F90DF91CF912F
:1019D0000895CF93DF9300D000D0CDB7DEB76983F1
:1019E0007A838B839C838091B7029091B802A091F7
:1019F000B902B091BA029C01AD0169817A818B81F3
:101A00009C819BD2882389F08091C7029091C80263
:101A1000A091C902B091CA029C01AD0169817A818D
:101A20008B819C818AD2882311F481E001C080E0FF
:101A30000F900F900F900F90DF91CF910895CF935B
:101A4000DF93CDB7DEB728970FB6F894DEBF0FBE91
:101A5000CDBF6D837E838F8398878D819E81AF817B
:101A6000B88589839A83AB83BC8389819A81AB8152
:101A7000BC8188279927A078BF770097A048BF47E7
:101A800069F489819A81AB81BC81AF77BB27892BAF
:101A90008A2B8B2B19F081E090E002C080E090E06F
:101AA00028960FB6F894DEBF0FBECDBFDF91CF9161
:101AB0000895CF93DF93CDB7DEB76A970FB6F8944A
:101AC000DEBF0FBECDBF80E290E09E838D83198282
:101AD0001A821B821C828D819E81809741F458D08E
:101AE000DC01CB0189839A83AB83BC8342C081E054
:101AF00090E09A878987CE010996FC01908181E068
:101B0000913009F480E0882F90E098878F838F814F
:101B10009885009719F00197B9F02BC080E090E00C
:101B2000A0EFBFE78F87988BA98BBA8B1B861C868B
:101B30001D861E868B859C85AD85BE8589839A838F
:101B4000AB83BC83000015C080E090E0A0EFBFE74E
:101B50008B8B9C8BAD8BBE8B1F8A188E198E1A8E29
:101B60008B899C89AD89BE8989839A83AB83BC8329
:101B7000000089819A81AB81BC81BC01CD016A964C
:101B80000FB6F894DEBF0FBECDBFDF91CF910895A1
:101B9000CF93DF9300D000D0CDB7DEB780E090E0E8
:101BA000A0E8BFE789839A83AB83BC8389819A814C
:101BB000AB81BC81BC01CD010F900F900F900F90B5
:101BC000DF91CF910895CF93DF93CDB7DEB76A97BA
:101BD0000FB6F894DEBF0FBECDBF80E290E09E83CB
:101BE0008D8319821A821B821C828D819E8180972F
:101BF00041F458D0DC01CB0189839A83AB83BC8349
:101C000042C081E090E09A878987CE010996FC0165
:101C1000908181E0913009F480E0882F90E09887EE
:101C20008F838F819885009719F00197B9F02BC0A9
:101C300080E090E0A0EFBFEF8F87988BA98BBA8BE5
:101C40001B861C861D861E868B859C85AD85BE8564
:101C500089839A83AB83BC83000015C080E090E049
:101C6000A0EFBFEF8B8B9C8BAD8BBE8B1F8A188E2A
:101C7000198E1A8E8B899C89AD89BE8989839A8336
:101C8000AB83BC83000089819A81AB81BC81BC019C
:101C9000CD016A960FB6F894DEBF0FBECDBFDF91BF
:101CA000CF910895CF93DF9300D000D0CDB7DEB7AA
:101CB00080E090E0A0E8BFEF89839A83AB83BC8388
:101CC00089819A81AB81BC81BC01CD010F900F90BD
:101CD0000F900F90DF91CF910895CF93DF93CDB701
:101CE000DEB76A970FB6F894DEBF0FBECDBF80E2B5
:101CF00090E09E838D8319821A821B821C828D81C3
:101D00009E81809741F45BD0DC01CB0189839A836B
:101D1000AB83BC8345C081E090E09A878987CE0180
:101D20000996FC01908181E0913009F480E0882FD0
:101D300090E098878F838F819885009719F001979D
:101D4000B9F02EC080E090E0A8EFBFEF8F87988BAE
:101D5000A98BBA8B1B861C861D861E868B859C854F
:101D6000AD85BE8589839A83AB83BC83000018C090
:101D70008FEF9FEFAFEFBFE78B8B9C8BAD8BBE8B55
:101D80008FEF9FEFDC018F8B988FA98FBA8F8B8994
:101D90009C89AD89BE8989839A83AB83BC8300000B
:101DA00089819A81AB81BC81BC01CD016A960FB655
:101DB000F894DEBF0FBECDBFDF91CF910895CF93D2
:101DC000DF93CDB7DEB728970FB6F894DEBF0FBE0E
:101DD000CDBF1B821C821D821E8281E090E098870D
:101DE0008F83CE010796FC01908181E0913009F448
:101DF00080E0882F90E09A83898389819A81009777
:101E000019F0019751F012C080E090E0A0ECBFEF14
:101E10008B839C83AD83BE8309C08FEF9FEFAFEFB1
:101E2000BFE78B839C83AD83BE8300008B819C8145
:101E3000AD81BE81BC01CD0128960FB6F894DEBFFE
:101E40000FBECDBFDF91CF9108955058BB27AA2771
:101E50000ED00DC2FED130F003D220F031F49F3FFE
:101E600011F41EF4F3C10EF4E095E7FBC0C1E92FB5
:101E70000FD280F3BA17620773078407950718F02B
:101E800071F49EF53EC20EF4E0950B2EBA2FA02DF4
:101E90000B01B90190010C01CA01A0011124FF2717
:101EA000591B99F0593F50F4503E68F11A16F04012
:101EB000A22F232F342F4427585FF3CF4695379511
:101EC0002795A795F0405395C9F77EF41F16BA0BD6
:101ED000620B730B840BBAF09150A1F0FF0FBB1F84
:101EE000661F771F881FC2F70EC0BA0F621F731FCD
:101EF000841F48F4879577956795B795F7959E3F2A
:101F000008F0B3CF9395880F08F09927EE0F9795B7
:101F100087950895DFD180F09F3740F491110EF43A
:101F2000F1C160E070E080E89FE3089526F01B16A1
:101F3000611D711D811D61C17BC135D108F481E036
:101F400008950CD094C18CD140F083D130F021F4AD
:101F50005F3F19F04CC15111D5C178C199D198F3A7
:101F60009923C9F35523B1F3951B550BBB27AA271A
:101F700062177307840738F09F5F5F4F220F331F8C
:101F8000441FAA1FA9F333D00E2E3AF0E0E830D058
:101F900091505040E695001CCAF729D0FE2F27D05B
:101FA000660F771F881FBB1F261737074807AB0729
:101FB000B0E809F0BB0B802DBF01FF2793585F4F9E
:101FC0002AF09E3F510568F012C19CC15F3FECF3BF
:101FD000983EDCF3869577956795B795F7959F5F63
:101FE000C9F7880F911D9695879597F90895E1E0B7
:101FF000660F771F881FBB1F621773078407BA0716
:1020000020F0621B730B840BBA0BEE1F88F7E09570
:10201000089546D188F09F5790F0B92F9927B7516E
:10202000A0F0D1F0660F771F881F991F1AF0BA959C
:10203000C9F712C0B13081F064D1B1E0089561C137
:10204000672F782F8827B85F39F0B93FCCF3869592
:1020500077956795B395D9F73EF4909580957095EF
:1020600061957F4F8F4F9F4F0895E89409C097FB6C
:102070003EF490958095709561957F4F8F4F9F4F5F
:102080009923A9F0F92F96E9BB279395F6958795A3
:1020900077956795B795F111F8CFFAF4BB0F11F466
:1020A00060FF1BC06F5F7F4F8F4F9F4F16C088230D
:1020B00011F096E911C0772321F09EE8872F762F43
:1020C00005C0662371F096E8862F70E060E02AF084
:1020D0009A95660F771F881FDAF7880F9695879570
:1020E00097F90895F7D080F09F3740F491110EF0E2
:1020F00009C160E070E080E89FEB089526F41B16AC
:10210000611D711D811D79C093C0A3D018F011F01D
:10211000A7D038F49BC0F6C0E92FBAD0B0F355234E
:10212000C9F3E7FB6217730784079507A8F199F3D2
:10213000E92FFF2788232AF03197660F771F881F22
:10214000DAF7952F5527442332F091505040220F53
:10215000331F441FD2F7BB27E91BF50B621B730B20
:10216000840BB109C1F222F4620F731F841FB11DE9
:1021700031972AF0660F771F881FBB1FEFCF915052
:1021800050405AF041F0882332F0660F771F881FC5
:1021900091505040C1F793954BC0869577956795C0
:1021A0009F5FD9F7F8CF990F0008550FAA0BE0E809
:1021B000FEEF16161706E807F907C0F01216130609
:1021C000E407F50798F0621B730B840B950B39F449
:1021D0000A2661F0232B242B252B21F408950A26AF
:1021E00009F4A140A6958FEF811D811D089597F9EF
:1021F0009F6780E870E060E00895882371F477239A
:1022000021F09850872B762F07C0662311F4992769
:102210000DC09051862B70E060E02AF09A95660F11
:10222000771F881FDAF7880F9695879597F9089595
:102230009F3F31F0915020F4879577956795B7953A
:10224000880F911D9695879597F908959FEF80ECDB
:10225000089500240A94161617061806090608950C
:1022600000240A9412161306140605060895092E72
:102270000394000C11F4882352F0BB0F40F4BF2BE1
:1022800011F460FF04C06F5F7F4F8F4F9F4F089521
:1022900057FD9058440F551F59F05F3F71F0479517
:1022A000880F97FB991F61F09F3F79F087950895FC
:1022B000121613061406551FF2CF4695F1DF08C01B
:1022C000161617061806991FF1CF86957105610538
:1022D00008940895E5DFA0F0BEE7B91788F4BB279E
:1022E0009F3860F41616B11D672F782F8827985FE6
:1022F000F7CF869577956795B11D93959639C8F375
:102300000895E894BB2766277727CB0197F90895AE
:102310004ADF08F48FEF08950BD0A9CF9ADF28F099
:102320009FDF18F0952309F062CF90CF1124EACFF8
:10233000AFDFA0F3959FD1F3950F50E0551F629F3B
:10234000F001729FBB27F00DB11D639FAA27F00D0E
:10235000B11DAA1F649F6627B00DA11D661F829F35
:102360002227B00DA11D621F739FB00DA11D621F1A
:10237000839FA00D611D221F749F3327A00D611D37
:10238000231F849F600D211D822F762F6A2F112419
:102390009F5750408AF0E1F088234AF0EE0FFF1F6C
:1023A000BB1F661F771F881F91505040A9F79E3FA3
:1023B000510570F01CCFA6CF5F3FECF3983EDCF3E5
:1023C000869577956795B795F795E7959F5FC1F7E0
:1023D000FE2B880F911D9695879597F908951F926A
:1023E0000F920FB60F9211248F939F93AF93BF93C9
:1023F000CF93DF93CDB7DEB72597DEBFCDBF8091FA
:102400009A0190919B01A0919C01B0919D018983BB
:102410009A83AB83BC8380919E018D8389819A814D
:10242000AB81BC810196A11DB11D89839A83AB83C9
:10243000BC838D818D5F8D838D818D3770F08D8113
:102440008D578D8389819A81AB81BC810196A11DB5
:10245000B11D89839A83AB83BC838D8180939E0158
:1024600089819A81AB81BC8180939A0190939B0171
:10247000A0939C01B0939D0180919601909197014A
:10248000A0919801B09199010196A11DB11D809371
:10249000960190939701A0939801B0939901000041
:1024A0000F900F900F900F900F90DF91CF91BF91F1
:1024B000AF919F918F910F900FBE0F901F90189525
:1024C000CF93DF9300D000D000D0CDB7DEB78FE53B
:1024D00090E0FC0180818D83F89480919601909129
:1024E0009701A0919801B091990189839A83AB8358
:1024F000BC8386E490E0FC0180818E8385E390E0DC
:10250000FC018081882F90E081709927892B71F0E0
:102510008E818F3F59F089819A81AB81BC81019670
:10252000A11DB11D89839A83AB83BC838FE590E0A5
:102530002D81FC01208389819A81AB81BC81222776
:10254000382F492F5A2F8E81882F90E0A0E0B0E0DD
:10255000820F931FA41FB51F880F991FAA1FBB1FAF
:10256000880F991FAA1FBB1FBC01CD0126960FB66D
:10257000F894DEBF0FBECDBFDF91CF910895CF930A
:10258000DF93CDB7DEB7789484E490E0FC0120813E
:1025900084E490E02260FC01208384E490E0FC016C
:1025A000208184E490E02160FC01208385E490E0B8
:1025B000FC01208185E490E02260FC01208385E419
:1025C00090E0FC01208185E490E02160FC01208303
:1025D0008EE690E0FC0120818EE690E02160FC0117
:1025E000208381E890E0FC01108281E890E0FC010A
:1025F000208181E890E02260FC01208381E890E066
:10260000FC01208181E890E02160FC01208380E8CA
:1026100090E0FC01208180E890E02160FC012083B3
:1026200081EB90E0FC01208181EB90E02460FC01D3
:10263000208380EB90E0FC01208180EB90E0216022
:10264000FC0120838AE790E0FC0120818AE790E08A
:102650002460FC0120838AE790E0FC0120818AE766
:1026600090E02260FC0120838AE790E0FC01208159
:102670008AE790E02160FC0120838AE790E0FC017A
:1026800020818AE790E02068FC01208381EC90E0C3
:10269000FC0110820000DF91CF910895CF93DF936A
:1026A00000D01F92CDB7DEB78B838B818E3018F0B0
:1026B0008B818E508B8380914101882F90E0382F41
:1026C00036953695282F2295220F220F207C922FA7
:1026D0008B818770292F282B8CE790E0FC012083C9
:1026E0008AE790E0FC0120818AE790E02064FC0109
:1026F000208300008AE790E0FC018081882F90E031
:1027000080749927892BB1F788E790E0FC018081DC
:10271000898389E790E0FC0180818A838A81882F00
:1027200090E0382F22278981882F90E0822B932BED
:102730000F900F900F90DF91CF910895CF93DF937B
:10274000CDB7DEB769970FB6F894DEBF0FBECDBF29
:10275000888F698F888D882F90E086569F4F9A8347
:10276000898389819A81FC0184918B838B818C83FD
:10277000888D882F90E08A579F4F9E838D838D810F
:102780009E81FC0184918F838F818887888588232F
:1027900009F495C08885882F90E0880F991F885983
:1027A0009F4F9A87898789859A85FC012591349165
:1027B000CF013C872B879A8789878B859C859E874D
:1027C0008D878885882F90E0880F991F8E589F4F9E
:1027D000988B8F878F859889FC0125913491CF0143
:1027E0003A8B298B988B8F8789899A899C8B8B8BC5
:1027F000898D882331F58FE590E0FC0180818F8BF6
:10280000F8948D859E85FC018081982F8C81809520
:102810008923282F8D859E85FC0120838B899C89A7
:10282000FC018081982F8C8180958923282F8B89AA
:102830009C89FC0120838FE590E02F89FC01208397
:102840003FC0898D823021F58FE590E0FC018081C9
:102850008E8BF8948D859E85FC018081982F8C81CC
:1028600080958923282F8D859E85FC0120838B8967
:102870009C89FC0190818C81292F282B8B899C8934
:10288000FC0120838FE590E02E89FC01208318C095
:102890008FE590E0FC0180818D8BF8948D859E857D
:1028A000FC0190818C81292F282B8D859E85FC0130
:1028B00020838FE590E02D89FC01208301C000007A
:1028C00069960FB6F894DEBF0FBECDBFDF91CF91F2
:1028D0000895CF93DF931F92CDB7DEB789838981A7
:1028E000882F90E08330910591F08430910534F485
:1028F0008130910501F1029741F145C08730910582
:1029000071F188309105A9F1049759F03CC080E835
:1029100090E0FC01208180E890E02F77FC0120838B
:1029200032C080E890E0FC01208180E890E02F7DBB
:10293000FC01208328C084E490E0FC01208184E431
:1029400090E02F77FC0120831EC084E490E0FC011E
:10295000208184E490E02F7DFC01208314C080EB73
:1029600090E0FC01208180EB90E02F77FC01208338
:102970000AC080EB90E0FC01208180EB90E02F7D8D
:10298000FC012083000000000F90DF91CF9108959B
:10299000CF93DF93CDB7DEB765970FB6F894DEBF60
:1029A0000FBECDBF8C8B6D8B8C89882F90E08255AC
:1029B0009F4F9A83898389819A81FC0184918B83BB
:1029C0008B818C838C89882F90E086569F4F9E83C5
:1029D0008D838D819E81FC0184918F838F81888777
:1029E0008C89882F90E08A579F4F9A87898789859D
:1029F0009A85FC0184918B878B858C878C858823B5
:102A000009F444C08C81882311F08C8162DF8C85AD
:102A1000882F90E0880F991F8E589F4F9E878D8733
:102A20008D859E85FC0125913491CF01388B2F87B0
:102A30009E878D878F8598899A8B898B8FE590E00B
:102A4000FC0180818B8BF8948D89882371F48989AE
:102A50009A89FC018081982F888580958923282F69
:102A600089899A89FC0120830BC089899A89FC0194
:102A700090818885292F282B89899A89FC012083B8
:102A80008FE590E02B89FC01208301C00000659652
:102A90000FB6F894DEBF0FBECDBFDF91CF91089582
:102AA000CF93DF93CDB7DEB761970FB6F894DEBF53
:102AB0000FBECDBF898B8989882F90E082559F4FAB
:102AC0009A83898389819A81FC0184918B838B818C
:102AD0008C838989882F90E086569F4F9E838D83B3
:102AE0008D819E81FC0184918F838F818887898964
:102AF000882F90E08A579F4F9A87898789859A8582
:102B0000FC0184918B878B858C878C85882319F4B5
:102B100080E090E025C08C81882311F08C81D9DE83
:102B20008C85882F90E0880F991F84589F4F9E872F
:102B30008D878D859E85FC0125913491CF01388B41
:102B40002F879E878D878F859889FC019081888546
:102B50008923882319F081E090E002C080E090E0B2
:102B600061960FB6F894DEBF0FBECDBFDF91CF9157
:102B70000895CF93DF93CDB7DEB7F89481E0DF916E
:102B8000CF910895CF93DF9300D0CDB7DEB79A836E
:102B900089838FE590E029813A81F9012081FC0148
:102BA000208300000F900F90DF91CF910895CF9375
:102BB000DF9300D01F92CDB7DEB79B838A838A81D3
:102BC0009B81FC01848D882F90E02A813B81820FBC
:102BD000931F835A9F4FFC01808189838A819B8147
:102BE000FC01848D882F90E001968F739078992353
:102BF00024F40197806C9F6F0196282F8A819B8116
:102C0000FC01248F8A819B81FC0186899789298117
:102C1000FC0120838A819B81FC0180899189FC01D0
:102C200080818370282F20648A819B81FC018089A8
:102C30009189FC0120838A819B81FC01238D8A81FB
:102C40009B81FC01948D81E0291709F080E08823A5
:102C500079F08A819B81FC0182899389FC01208122
:102C60008A819B81FC01828993892F7DFC012083CD
:102C700000000F900F900F90DF91CF910895CF93A8
:102C8000DF93CDB7DEB729970FB6F894DEBF0FBE3E
:102C9000CDBF9C838B834D835E836F837887298729
:102CA00080E099E0ADE3B0E02D813E814F81588511
:102CB000BC01CD01A2D4DA01C9010197A109B10972
:102CC000B695A795979587959A8389838B819C81E3
:102CD000FC018089918922E0FC0120838D819E8105
:102CE000AF81B8858115914EA105B10529F0898183
:102CF0009A8181159041E8F08B819C81FC0180894B
:102D00009189FC01108280E894E8AEE1B0E02D8169
:102D10003E814F815885BC01CD016FD4DA01C901D4
:102D20000197A109B109B695A795979587959A83BB
:102D3000898389819A81292F33278B819C81FC018A
:102D400084859585FC0120838B819C81FC0186858F
:102D500097852981FC0120838B819C81FC01108E49
:102D60008B819C81FC01848995892985FC012083C4
:102D70008B819C81FC0182899389FC0120818B815C
:102D80009C81FC01828993892061FC0120838B81D5
:102D90009C81FC0182899389FC0120818B819C812B
:102DA000FC01828993892860FC0120838B819C81AE
:102DB000FC0182899389FC0120818B819C81FC012B
:102DC000828993892068FC0120838B819C81FC018E
:102DD00082899389FC0120818B819C81FC018289FD
:102DE00093892F7DFC012083000029960FB6F8946B
:102DF000DEBF0FBECDBFDF91CF910895CF93DF939C
:102E000000D0CDB7DEB79A83898389819A81FC018E
:102E1000818D882F90E09C01205C3F4F89819A81B1
:102E2000FC01828D882F90E0A901481B590BCA0133
:102E30008F7399270F900F90DF91CF910895CF93C3
:102E4000DF9300D0CDB7DEB79A83898389819A81D9
:102E5000FC01218D89819A81FC01928D81E02917E5
:102E600009F080E0882319F08FEF9FEF0FC0898170
:102E70009A81FC01828D882F90E029813A81820F0E
:102E8000931F4D96FC018081882F90E00F900F904A
:102E9000DF91CF910895CF93DF9300D01F92CDB7EC
:102EA000DEB79B838A838A819B81FC01218D8A8185
:102EB0009B81FC01928D81E0291709F080E0882335
:102EC00019F08FEF9FEF1CC08A819B81FC01828DDE
:102ED000882F90E02A813B81820F931F4D96FC0141
:102EE000808189838A819B81FC01828D8F5F282F5D
:102EF0002F738A819B81FC01228F8981882F90E02A
:102F00000F900F900F90DF91CF910895CF93DF93A3
:102F100000D000D0CDB7DEB79C838B838B819C81A2
:102F2000FC01838D89838B819C81FC01848D8A8344
:102F300099818A81981768F08981882F90E02FE322
:102F400030E0281B390B8A81882F90E0820F931F75
:102F50000BC08A81282F30E08981882F90E0A90159
:102F6000481B590BCA0101970F900F900F900F90BB
:102F7000DF91CF910895CF93DF9300D0CDB7DEB727
:102F80009A83898389819A81FC01908D81E08927C8
:102F9000882309F04DC089819A81FC018289938937
:102FA000FC018081882F90E080729927892B69F439
:102FB00089819A81FC0180899189FC018081882F17
:102FC00090E080749927892B11F481E001C080E0A2
:102FD000882379F18FE590E0FC01808188237CF0E3
:102FE00089819A81FC0182899389FC018081882FE3
:102FF00090E080729927892B11F081E001C080E078
:10300000882349F289819A81FC0180899189FC0198
:103010008081882F90E08072992721E0892B09F424
:1030200020E0222309F4B7CF89819A81C0DDB3CF94
:1030300000000F900F90DF91CF910895CF93DF9311
:10304000CDB7DEB728970FB6F894DEBF0FBECDBF61
:103050009F838E8368878E819F8121E0FC01208F72
:103060008E819F81FC01238D8E819F81FC01848D47
:10307000281779F48E819F81FC0180899189FC0158
:103080008081882F90E080729927892B11F081E050
:1030900001C080E0882359F18FE590E0FC01808138
:1030A0008C8367DD898389818823D9F08E819F8114
:1030B000FC01868997892885FC0120838E819F8168
:1030C000FC0180899189FC0180818370282F206414
:1030D0008E819F81FC0180899189FC012083198266
:1030E000E2CFCE0104964EDD81E090E06EC08E818D
:1030F0009F81FC01838D882F90E001968F739078DB
:10310000992324F40197806C9F6F01968B838E81A5
:103110009F81FC01948D81E02B81291709F080E0CB
:103120008823F9F08FE590E0FC0180818095881F6D
:103130008827881F882359F38E819F81FC0180890D
:103140009189FC018081882F90E08072992721E08D
:10315000892B09F420E02223D1F28E819F8127DD83
:10316000D6CF8E819F81FC01838D882F90E02E81A8
:103170003F81820F931F835A9F4F2885FC01208334
:103180008FE590E0FC0180818D83F3DC8A838A8166
:103190008823B1F08E819F812B81FC01238F8E814A
:1031A0009F81FC0182899389FC0120818E819F810E
:1031B000FC01828993892062FC0120831A82E7CF77
:1031C000CE010596DFDC81E090E028960FB6F894FA
:1031D000DEBF0FBECDBFDF91CF910895CF93DF93B8
:1031E00000D0CDB7DEB79A8389832CE631E08981A0
:1031F0009A81FC013183208389819A81FC011382A9
:10320000128200000F900F90DF91CF910895CF931D
:10321000DF9300D0CDB7DEB79A83898380E090E05A
:103220000F900F90DF91CF910895CF93DF9300D04F
:10323000CDB7DEB79A83898300000F900F90DF919E
:10324000CF910895CF93DF9300D0CDB7DEB79A83A7
:10325000898389819A81C2DF2AE531E089819A8157
:10326000FC013183208329813A8188EE93E0A0E03C
:10327000B0E0F90184839583A683B78300000F90A3
:103280000F90DF91CF910895CF92DF92EF92FF924E
:103290000F931F93CF93DF93CDB7DEB72E970FB663
:1032A000F894DEBF0FBECDBF9A8389837C836B8386
:1032B0005E834D8338872F831A870987FC86EB86C8
:1032C000DE86CD8689819A81BDDF28E431E089815F
:1032D0009A81FC013183208389819A812B813C81F1
:1032E000FC013587248789819A812D813E81FC01EB
:1032F0003787268789819A812F813885FC01318B18
:10330000208B89819A8129853A85FC01338B228B18
:1033100089819A812B853C85FC01358B248B8981A1
:103320009A812D853E85FC01378B268B89819A8178
:10333000FC01118E89819A81FC01128E89819A810A
:10334000FC01138E89819A81FC01148E00002E9657
:103350000FB6F894DEBF0FBECDBFDF91CF911F91A6
:103360000F91FF90EF90DF90CF900895CF93DF9370
:1033700000D000D0CDB7DEB79C838B838B819C813E
:10338000FC0180899189FC018081882F90E0847004
:10339000992721E0892B09F020E0222371F18B810C
:1033A0009C81FC0186899789FC01808189838B81BE
:1033B0009C81FC01818D8F5F8F738A838B819C81BF
:1033C000FC01928D81E02A81291709F480E088238D
:1033D000D9F08B819C81FC01818D882F90E02B811D
:1033E0003C81820F931F4D962981FC0120838B81A4
:1033F0009C812A81FC01218F07C08B819C81FC016B
:1034000086899789FC01808100000F900F900F90B2
:103410000F90DF91CF9108951F920F920FB60F92E8
:1034200011242F933F934F935F936F937F938F93C9
:103430009F93AF93BF93EF93FF93CF93DF93CDB75A
:10344000DEB78FE991E092DF0000DF91CF91FF912D
:10345000EF91BF91AF919F918F917F916F915F910C
:103460004F913F912F910F900FBE0F901F90189585
:103470001F920F920FB60F9211242F933F934F93E9
:103480005F936F937F938F939F93AF93BF93EF93CC
:10349000FF93CF93DF93CDB7DEB78FE991E087DB62
:1034A0000000DF91CF91FF91EF91BF91AF919F917C
:1034B0008F917F916F915F914F913F912F910F90DD
:1034C0000FBE0F901F901895CF92DF92EF92FF9250
:1034D0000F931F93CF93DF9300D000D0CDB7DEB70B
:1034E0009A8389837C836B8389819A810197C9F44C
:1034F0008B819C810196A9F40F2EF6ECCF2ED12C56
:10350000F02D0F2EF2ECEF2EF12CF02D01EC10E04F
:1035100020EC30E044EC50E065EC70E08FE991E0A5
:10352000B3DE00000F900F900F900F90DF91CF91BE
:103530001F910F91FF90EF90DF90CF900895CF9360
:10354000DF93CDB7DEB76FEF7FEF81E090E0BCDFB8
:10355000DF91CF910895CF93DF93CDB7DEB7289752
:103560000FB6F894DEBF0FBECDBF9C838B837E83E6
:103570006D8358874F831A8219828F8198859C01A9
:103580002150310938872F8321E0892B09F420E06D
:10359000222319F18B819C81FC0180819181FC01A6
:1035A000208131818D819E81AC014F5F5F4F5E83B1
:1035B0004D83FC0140818B819C81642FF901099529
:1035C00021E0892B09F420E0222331F089819A81BE
:1035D00001969A838983D1CF000089819A812896A8
:1035E0000FB6F894DEBF0FBECDBFDF91CF91089527
:1035F000CF93DF93CDB7DEB728D0A1E21A2EAA1B56
:10360000BB1BFD010DC0AA1FBB1FEE1FFF1FA21792
:10361000B307E407F50720F0A21BB30BE40BF50B8F
:10362000661F771F881F991F1A9469F76095709518
:10363000809590959B01AC01BD01CF010895EE0FDF
:10364000FF1F0590F491E02D099481E090E0F8943B
:1036500007C0DC0101C06D9341505040E0F7089570
:04366000F894FFCF0C
:103664000000A04200002042000080BFCDCCCC3D31
:10367400000080BF000080BF000080BF0A28A03B7C
:10368400CDCC4C3E0A28A03BCDCC4C3F0A28A03BD5
:1036940000007042000070420A28A03BCDCC4C3E92
:1036A40000017D01000000001E18AB1A8617BB172D
:1036B400FE164B171F1700000000F81AAB1A071963
:1036C4001519F81AF81AF81A00000000F81AAB1ABB
:0436D40007191519A4
:00000001FF
